{
  "_format": "hh-sol-artifact-1",
  "contractName": "AgriVerify",
  "sourceName": "contracts/Agriverify.sol",
  "abi": [
    {
      "inputs": [
        {
          "internalType": "string",
          "name": "_cropName",
          "type": "string"
        },
        {
          "internalType": "string",
          "name": "_farmDetails",
          "type": "string"
        }
      ],
      "name": "certifyCrop",
      "outputs": [],
      "stateMutability": "nonpayable",
      "type": "function"
    },
    {
      "inputs": [
        {
          "internalType": "address",
          "name": "",
          "type": "address"
        }
      ],
      "name": "farmers",
      "outputs": [
        {
          "internalType": "string",
          "name": "cropName",
          "type": "string"
        },
        {
          "internalType": "string",
          "name": "farmDetails",
          "type": "string"
        },
        {
          "internalType": "bool",
          "name": "certified",
          "type": "bool"
        }
      ],
      "stateMutability": "view",
      "type": "function"
    },
    {
      "inputs": [
        {
          "internalType": "address",
          "name": "farmer",
          "type": "address"
        }
      ],
      "name": "getCertificationStatus",
      "outputs": [
        {
          "internalType": "string",
          "name": "",
          "type": "string"
        },
        {
          "internalType": "string",
          "name": "",
          "type": "string"
        },
        {
          "internalType": "bool",
          "name": "",
          "type": "bool"
        }
      ],
      "stateMutability": "view",
      "type": "function"
    }
  ],
  "bytecode": "0x608060405234801561001057600080fd5b50610ac3806100206000396000f3fe608060405234801561001057600080fd5b50600436106100415760003560e01c8063401b21681461004657806350593ceb14610078578063e6be4bc9146100aa575b600080fd5b610060600480360381019061005b91906104db565b6100c6565b60405161006f939291906105b3565b60405180910390f35b610092600480360381019061008d91906104db565b61020d565b6040516100a1939291906105b3565b60405180910390f35b6100c460048036038101906100bf919061072d565b6103ba565b005b60006020528060005260406000206000915090508060000180546100e9906107d4565b80601f0160208091040260200160405190810160405280929190818152602001828054610115906107d4565b80156101625780601f1061013757610100808354040283529160200191610162565b820191906000526020600020905b81548152906001019060200180831161014557829003601f168201915b505050505090806001018054610177906107d4565b80601f01602080910402602001604051908101604052809291908181526020018280546101a3906107d4565b80156101f05780601f106101c5576101008083540402835291602001916101f0565b820191906000526020600020905b8154815290600101906020018083116101d357829003601f168201915b5050505050908060020160009054906101000a900460ff16905083565b6060806000806000808673ffffffffffffffffffffffffffffffffffffffff1673ffffffffffffffffffffffffffffffffffffffff16815260200190815260200160002060405180606001604052908160008201805461026c906107d4565b80601f0160208091040260200160405190810160405280929190818152602001828054610298906107d4565b80156102e55780601f106102ba576101008083540402835291602001916102e5565b820191906000526020600020905b8154815290600101906020018083116102c857829003601f168201915b505050505081526020016001820180546102fe906107d4565b80601f016020809104026020016040519081016040528092919081815260200182805461032a906107d4565b80156103775780601f1061034c57610100808354040283529160200191610377565b820191906000526020600020905b81548152906001019060200180831161035a57829003601f168201915b505050505081526020016002820160009054906101000a900460ff1615151515815250509050806000015181602001518260400151935093509350509193909250565b6040518060600160405280838152602001828152602001600115158152506000803373ffffffffffffffffffffffffffffffffffffffff1673ffffffffffffffffffffffffffffffffffffffff168152602001908152602001600020600082015181600001908161042b91906109bb565b50602082015181600101908161044191906109bb565b5060408201518160020160006101000a81548160ff0219169083151502179055509050505050565b6000604051905090565b600080fd5b600080fd5b600073ffffffffffffffffffffffffffffffffffffffff82169050919050565b60006104a88261047d565b9050919050565b6104b88161049d565b81146104c357600080fd5b50565b6000813590506104d5816104af565b92915050565b6000602082840312156104f1576104f0610473565b5b60006104ff848285016104c6565b91505092915050565b600081519050919050565b600082825260208201905092915050565b60005b83811015610542578082015181840152602081019050610527565b60008484015250505050565b6000601f19601f8301169050919050565b600061056a82610508565b6105748185610513565b9350610584818560208601610524565b61058d8161054e565b840191505092915050565b60008115159050919050565b6105ad81610598565b82525050565b600060608201905081810360008301526105cd818661055f565b905081810360208301526105e1818561055f565b90506105f060408301846105a4565b949350505050565b600080fd5b600080fd5b7f4e487b7100000000000000000000000000000000000000000000000000000000600052604160045260246000fd5b61063a8261054e565b810181811067ffffffffffffffff8211171561065957610658610602565b5b80604052505050565b600061066c610469565b90506106788282610631565b919050565b600067ffffffffffffffff82111561069857610697610602565b5b6106a18261054e565b9050602081019050919050565b82818337600083830152505050565b60006106d06106cb8461067d565b610662565b9050828152602081018484840111156106ec576106eb6105fd565b5b6106f78482856106ae565b509392505050565b600082601f830112610714576107136105f8565b5b81356107248482602086016106bd565b91505092915050565b6000806040838503121561074457610743610473565b5b600083013567ffffffffffffffff81111561076257610761610478565b5b61076e858286016106ff565b925050602083013567ffffffffffffffff81111561078f5761078e610478565b5b61079b858286016106ff565b9150509250929050565b7f4e487b7100000000000000000000000000000000000000000000000000000000600052602260045260246000fd5b600060028204905060018216806107ec57607f821691505b6020821081036107ff576107fe6107a5565b5b50919050565b60008190508160005260206000209050919050565b60006020601f8301049050919050565b600082821b905092915050565b6000600883026108677fffffffffffffffffffffffffffffffffffffffffffffffffffffffffffffffff8261082a565b610871868361082a565b95508019841693508086168417925050509392505050565b6000819050919050565b6000819050919050565b60006108b86108b36108ae84610889565b610893565b610889565b9050919050565b6000819050919050565b6108d28361089d565b6108e66108de826108bf565b848454610837565b825550505050565b600090565b6108fb6108ee565b6109068184846108c9565b505050565b5b8181101561092a5761091f6000826108f3565b60018101905061090c565b5050565b601f82111561096f5761094081610805565b6109498461081a565b81016020851015610958578190505b61096c6109648561081a565b83018261090b565b50505b505050565b600082821c905092915050565b600061099260001984600802610974565b1980831691505092915050565b60006109ab8383610981565b9150826002028217905092915050565b6109c482610508565b67ffffffffffffffff8111156109dd576109dc610602565b5b6109e782546107d4565b6109f282828561092e565b600060209050601f831160018114610a255760008415610a13578287015190505b610a1d858261099f565b865550610a85565b601f198416610a3386610805565b60005b82811015610a5b57848901518255600182019150602085019450602081019050610a36565b86831015610a785784890151610a74601f891682610981565b8355505b6001600288020188555050505b50505050505056fea264697066735822122052fb6859b5e0e331d44c7d0d2c2c38f651c4852a0b3b00ca87f5e1c9159cb5a664736f6c63430008120033",
  "linkReferences": {},
  "deployedLinkReferences": {}
}